{
  "_format": "hh-sol-artifact-1",
  "contractName": "NexusVault",
  "sourceName": "contracts/NexusVault.sol",
  "abi": [
    {
      "inputs": [
        {
          "internalType": "address",
          "name": "_teleporterMessenger",
          "type": "address"
        },
        {
          "internalType": "address",
          "name": "_paymentToken",
          "type": "address"
        }
      ],
      "stateMutability": "nonpayable",
      "type": "constructor"
    },
    {
      "inputs": [
        {
          "internalType": "address",
          "name": "owner",
          "type": "address"
        }
      ],
      "name": "OwnableInvalidOwner",
      "type": "error"
    },
    {
      "inputs": [
        {
          "internalType": "address",
          "name": "account",
          "type": "address"
        }
      ],
      "name": "OwnableUnauthorizedAccount",
      "type": "error"
    },
    {
      "inputs": [
        {
          "internalType": "address",
          "name": "token",
          "type": "address"
        }
      ],
      "name": "SafeERC20FailedOperation",
      "type": "error"
    },
    {
      "anonymous": false,
      "inputs": [
        {
          "indexed": true,
          "internalType": "bytes32",
          "name": "subnetId",
          "type": "bytes32"
        },
        {
          "indexed": true,
          "internalType": "address",
          "name": "billingContract",
          "type": "address"
        }
      ],
      "name": "BillingContractUpdated",
      "type": "event"
    },
    {
      "anonymous": false,
      "inputs": [
        {
          "indexed": true,
          "internalType": "address",
          "name": "previousOwner",
          "type": "address"
        },
        {
          "indexed": true,
          "internalType": "address",
          "name": "newOwner",
          "type": "address"
        }
      ],
      "name": "OwnershipTransferred",
      "type": "event"
    },
    {
      "anonymous": false,
      "inputs": [
        {
          "indexed": true,
          "internalType": "address",
          "name": "user",
          "type": "address"
        },
        {
          "indexed": true,
          "internalType": "address",
          "name": "receiver",
          "type": "address"
        },
        {
          "indexed": false,
          "internalType": "uint256",
          "name": "amount",
          "type": "uint256"
        }
      ],
      "name": "PaymentTeleported",
      "type": "event"
    },
    {
      "inputs": [],
      "name": "allowedBillingContract",
      "outputs": [
        {
          "internalType": "address",
          "name": "",
          "type": "address"
        }
      ],
      "stateMutability": "view",
      "type": "function"
    },
    {
      "inputs": [],
      "name": "allowedSubnetId",
      "outputs": [
        {
          "internalType": "bytes32",
          "name": "",
          "type": "bytes32"
        }
      ],
      "stateMutability": "view",
      "type": "function"
    },
    {
      "inputs": [],
      "name": "owner",
      "outputs": [
        {
          "internalType": "address",
          "name": "",
          "type": "address"
        }
      ],
      "stateMutability": "view",
      "type": "function"
    },
    {
      "inputs": [],
      "name": "paymentToken",
      "outputs": [
        {
          "internalType": "contract IERC20",
          "name": "",
          "type": "address"
        }
      ],
      "stateMutability": "view",
      "type": "function"
    },
    {
      "inputs": [
        {
          "internalType": "bytes32",
          "name": "sourceBlockchainID",
          "type": "bytes32"
        },
        {
          "internalType": "address",
          "name": "originSenderAddress",
          "type": "address"
        },
        {
          "internalType": "bytes",
          "name": "message",
          "type": "bytes"
        }
      ],
      "name": "receiveTeleporterMessage",
      "outputs": [],
      "stateMutability": "nonpayable",
      "type": "function"
    },
    {
      "inputs": [],
      "name": "renounceOwnership",
      "outputs": [],
      "stateMutability": "nonpayable",
      "type": "function"
    },
    {
      "inputs": [
        {
          "internalType": "bytes32",
          "name": "_subnetId",
          "type": "bytes32"
        },
        {
          "internalType": "address",
          "name": "_billingContract",
          "type": "address"
        }
      ],
      "name": "setAllowedBillingContract",
      "outputs": [],
      "stateMutability": "nonpayable",
      "type": "function"
    },
    {
      "inputs": [],
      "name": "teleporterMessenger",
      "outputs": [
        {
          "internalType": "address",
          "name": "",
          "type": "address"
        }
      ],
      "stateMutability": "view",
      "type": "function"
    },
    {
      "inputs": [
        {
          "internalType": "address",
          "name": "newOwner",
          "type": "address"
        }
      ],
      "name": "transferOwnership",
      "outputs": [],
      "stateMutability": "nonpayable",
      "type": "function"
    }
  ],
  "bytecode": "0x60c060405234801561001057600080fd5b50604051610a33380380610a3383398101604081905261002f9161018f565b338061005657604051631e4fbdf760e01b8152600060048201526024015b60405180910390fd5b61005f81610123565b506001600160a01b0382166100b65760405162461bcd60e51b815260206004820152601960248201527f496e76616c6964206d657373656e676572206164647265737300000000000000604482015260640161004d565b6001600160a01b03811661010c5760405162461bcd60e51b815260206004820152601560248201527f496e76616c696420746f6b656e20616464726573730000000000000000000000604482015260640161004d565b6001600160a01b039182166080521660a0526101c2565b600080546001600160a01b038381166001600160a01b0319831681178455604051919092169283917f8be0079c531659141344cd1fd0a4f28419497f9722a3daafe3b4186f6b6457e09190a35050565b80516001600160a01b038116811461018a57600080fd5b919050565b600080604083850312156101a257600080fd5b6101ab83610173565b91506101b960208401610173565b90509250929050565b60805160a05161083f6101f46000396000818160b201526104cc01526000818161010f0152610296015261083f6000f3fe608060405234801561001057600080fd5b50600436106100935760003560e01c80639b3e5803116100665780639b3e58031461010a578063a76ec22414610131578063c868efaa14610144578063d8ee5fad14610157578063f2fde38b1461016e57600080fd5b806325ad8032146100985780633013ce29146100ad578063715018a6146100f15780638da5cb5b146100f9575b600080fd5b6100ab6100a63660046106eb565b610181565b005b6100d47f000000000000000000000000000000000000000000000000000000000000000081565b6040516001600160a01b0390911681526020015b60405180910390f35b6100ab610277565b6000546001600160a01b03166100d4565b6100d47f000000000000000000000000000000000000000000000000000000000000000081565b6002546100d4906001600160a01b031681565b6100ab61015236600461071b565b61028b565b61016060015481565b6040519081526020016100e8565b6100ab61017c3660046107a4565b61054a565b610189610588565b816101cf5760405162461bcd60e51b8152602060048201526011602482015270125b9d985b1a59081cdd589b995d081251607a1b60448201526064015b60405180910390fd5b6001600160a01b0381166102255760405162461bcd60e51b815260206004820152601860248201527f496e76616c696420636f6e74726163742061646472657373000000000000000060448201526064016101c6565b6001829055600280546001600160a01b0319166001600160a01b03831690811790915560405183907f3da509fbf0d8c59ff809352d94ab0d1f8adef7867cc288dcefa83525c43496da90600090a35050565b61027f610588565b61028960006105b5565b565b336001600160a01b037f000000000000000000000000000000000000000000000000000000000000000016146103035760405162461bcd60e51b815260206004820152601c60248201527f556e617574686f72697a65643a204e6f742054656c65706f727465720000000060448201526064016101c6565b60015484146103545760405162461bcd60e51b815260206004820152601c60248201527f556e617574686f72697a65643a20496e76616c6964205375626e65740000000060448201526064016101c6565b6002546001600160a01b038481169116146103c05760405162461bcd60e51b815260206004820152602660248201527f556e617574686f72697a65643a20496e76616c69642042696c6c696e6720436f6044820152651b9d1c9858dd60d21b60648201526084016101c6565b600080806103d0848601866107c8565b919450925090506001600160a01b0383166104245760405162461bcd60e51b8152602060048201526014602482015273496e76616c69642075736572206164647265737360601b60448201526064016101c6565b6001600160a01b03821661047a5760405162461bcd60e51b815260206004820152601860248201527f496e76616c69642072656365697665722061646472657373000000000000000060448201526064016101c6565b600081116104bf5760405162461bcd60e51b81526020600482015260126024820152710416d6f756e74206d757374206265203e20360741b60448201526064016101c6565b6104f46001600160a01b037f000000000000000000000000000000000000000000000000000000000000000016848484610605565b816001600160a01b0316836001600160a01b03167fd61869116bb1f8436f7eaf952c8eec3586358e84817c49cfc105bc83502314e58360405161053991815260200190565b60405180910390a350505050505050565b610552610588565b6001600160a01b03811661057c57604051631e4fbdf760e01b8152600060048201526024016101c6565b610585816105b5565b50565b6000546001600160a01b031633146102895760405163118cdaa760e01b81523360048201526024016101c6565b600080546001600160a01b038381166001600160a01b0319831681178455604051919092169283917f8be0079c531659141344cd1fd0a4f28419497f9722a3daafe3b4186f6b6457e09190a35050565b604080516001600160a01b0385811660248301528416604482015260648082018490528251808303909101815260849091019091526020810180516001600160e01b03166323b872dd60e01b17905261065f908590610665565b50505050565b600080602060008451602086016000885af180610688576040513d6000823e3d81fd5b50506000513d915081156106a05780600114156106ad565b6001600160a01b0384163b155b1561065f57604051635274afe760e01b81526001600160a01b03851660048201526024016101c6565b6001600160a01b038116811461058557600080fd5b600080604083850312156106fe57600080fd5b823591506020830135610710816106d6565b809150509250929050565b6000806000806060858703121561073157600080fd5b843593506020850135610743816106d6565b9250604085013567ffffffffffffffff8082111561076057600080fd5b818701915087601f83011261077457600080fd5b81358181111561078357600080fd5b88602082850101111561079557600080fd5b95989497505060200194505050565b6000602082840312156107b657600080fd5b81356107c1816106d6565b9392505050565b6000806000606084860312156107dd57600080fd5b83356107e8816106d6565b925060208401356107f8816106d6565b92959294505050604091909101359056fea26469706673582212208139eaa8c786aa426edb3264cf0a527e2d3f08bb9004c7e2c918838e36b0e14e64736f6c63430008190033",
  "linkReferences": {},
  "deployedLinkReferences": {}
}