{
  "_format": "hh-sol-artifact-1",
  "contractName": "NexusBilling",
  "sourceName": "contracts/NexusBilling.sol",
  "abi": [
    {
      "inputs": [
        {
          "internalType": "address",
          "name": "_teleporterMessenger",
          "type": "address"
        },
        {
          "internalType": "bytes32",
          "name": "_cChainBlockchainID",
          "type": "bytes32"
        },
        {
          "internalType": "address",
          "name": "_nexusVaultOnCChain",
          "type": "address"
        }
      ],
      "stateMutability": "nonpayable",
      "type": "constructor"
    },
    {
      "inputs": [
        {
          "internalType": "address",
          "name": "owner",
          "type": "address"
        }
      ],
      "name": "OwnableInvalidOwner",
      "type": "error"
    },
    {
      "inputs": [
        {
          "internalType": "address",
          "name": "account",
          "type": "address"
        }
      ],
      "name": "OwnableUnauthorizedAccount",
      "type": "error"
    },
    {
      "anonymous": false,
      "inputs": [
        {
          "indexed": true,
          "internalType": "address",
          "name": "oldVault",
          "type": "address"
        },
        {
          "indexed": true,
          "internalType": "address",
          "name": "newVault",
          "type": "address"
        }
      ],
      "name": "NexusVaultUpdated",
      "type": "event"
    },
    {
      "anonymous": false,
      "inputs": [
        {
          "indexed": true,
          "internalType": "address",
          "name": "previousOwner",
          "type": "address"
        },
        {
          "indexed": true,
          "internalType": "address",
          "name": "newOwner",
          "type": "address"
        }
      ],
      "name": "OwnershipTransferred",
      "type": "event"
    },
    {
      "anonymous": false,
      "inputs": [
        {
          "indexed": true,
          "internalType": "address",
          "name": "user",
          "type": "address"
        },
        {
          "indexed": true,
          "internalType": "uint256",
          "name": "serviceId",
          "type": "uint256"
        },
        {
          "indexed": true,
          "internalType": "bytes32",
          "name": "messageID",
          "type": "bytes32"
        },
        {
          "indexed": false,
          "internalType": "uint256",
          "name": "amountToPull",
          "type": "uint256"
        }
      ],
      "name": "RenewalTriggered",
      "type": "event"
    },
    {
      "anonymous": false,
      "inputs": [
        {
          "indexed": true,
          "internalType": "uint256",
          "name": "serviceId",
          "type": "uint256"
        },
        {
          "indexed": true,
          "internalType": "address",
          "name": "receiver",
          "type": "address"
        }
      ],
      "name": "ServiceReceiverSet",
      "type": "event"
    },
    {
      "anonymous": false,
      "inputs": [
        {
          "indexed": true,
          "internalType": "address",
          "name": "user",
          "type": "address"
        },
        {
          "indexed": true,
          "internalType": "uint256",
          "name": "serviceId",
          "type": "uint256"
        },
        {
          "indexed": false,
          "internalType": "uint256",
          "name": "costPerMonth",
          "type": "uint256"
        }
      ],
      "name": "SubscriptionRegistered",
      "type": "event"
    },
    {
      "inputs": [],
      "name": "cChainBlockchainID",
      "outputs": [
        {
          "internalType": "bytes32",
          "name": "",
          "type": "bytes32"
        }
      ],
      "stateMutability": "view",
      "type": "function"
    },
    {
      "inputs": [
        {
          "internalType": "address",
          "name": "user",
          "type": "address"
        },
        {
          "internalType": "uint256",
          "name": "serviceId",
          "type": "uint256"
        }
      ],
      "name": "cancelSubscription",
      "outputs": [],
      "stateMutability": "nonpayable",
      "type": "function"
    },
    {
      "inputs": [],
      "name": "nexusVaultOnCChain",
      "outputs": [
        {
          "internalType": "address",
          "name": "",
          "type": "address"
        }
      ],
      "stateMutability": "view",
      "type": "function"
    },
    {
      "inputs": [],
      "name": "owner",
      "outputs": [
        {
          "internalType": "address",
          "name": "",
          "type": "address"
        }
      ],
      "stateMutability": "view",
      "type": "function"
    },
    {
      "inputs": [
        {
          "internalType": "address",
          "name": "user",
          "type": "address"
        },
        {
          "internalType": "uint256",
          "name": "serviceId",
          "type": "uint256"
        },
        {
          "internalType": "uint256",
          "name": "costPerMonth",
          "type": "uint256"
        }
      ],
      "name": "registerSubscription",
      "outputs": [],
      "stateMutability": "nonpayable",
      "type": "function"
    },
    {
      "inputs": [],
      "name": "renounceOwnership",
      "outputs": [],
      "stateMutability": "nonpayable",
      "type": "function"
    },
    {
      "inputs": [
        {
          "internalType": "uint256",
          "name": "",
          "type": "uint256"
        }
      ],
      "name": "serviceReceivers",
      "outputs": [
        {
          "internalType": "address",
          "name": "",
          "type": "address"
        }
      ],
      "stateMutability": "view",
      "type": "function"
    },
    {
      "inputs": [
        {
          "internalType": "address",
          "name": "_vault",
          "type": "address"
        }
      ],
      "name": "setNexusVault",
      "outputs": [],
      "stateMutability": "nonpayable",
      "type": "function"
    },
    {
      "inputs": [
        {
          "internalType": "uint256",
          "name": "serviceId",
          "type": "uint256"
        },
        {
          "internalType": "address",
          "name": "receiver",
          "type": "address"
        }
      ],
      "name": "setServiceReceiver",
      "outputs": [],
      "stateMutability": "nonpayable",
      "type": "function"
    },
    {
      "inputs": [
        {
          "internalType": "address",
          "name": "",
          "type": "address"
        },
        {
          "internalType": "uint256",
          "name": "",
          "type": "uint256"
        }
      ],
      "name": "subscriptions",
      "outputs": [
        {
          "internalType": "address",
          "name": "userAddress",
          "type": "address"
        },
        {
          "internalType": "uint256",
          "name": "serviceId",
          "type": "uint256"
        },
        {
          "internalType": "uint256",
          "name": "costPerMonth",
          "type": "uint256"
        },
        {
          "internalType": "uint256",
          "name": "nextPaymentDueDate",
          "type": "uint256"
        },
        {
          "internalType": "bool",
          "name": "isActive",
          "type": "bool"
        }
      ],
      "stateMutability": "view",
      "type": "function"
    },
    {
      "inputs": [],
      "name": "teleporterMessenger",
      "outputs": [
        {
          "internalType": "contract ITeleporterMessenger",
          "name": "",
          "type": "address"
        }
      ],
      "stateMutability": "view",
      "type": "function"
    },
    {
      "inputs": [
        {
          "internalType": "address",
          "name": "newOwner",
          "type": "address"
        }
      ],
      "name": "transferOwnership",
      "outputs": [],
      "stateMutability": "nonpayable",
      "type": "function"
    },
    {
      "inputs": [
        {
          "internalType": "address",
          "name": "user",
          "type": "address"
        },
        {
          "internalType": "uint256",
          "name": "serviceId",
          "type": "uint256"
        }
      ],
      "name": "triggerRenewal",
      "outputs": [],
      "stateMutability": "nonpayable",
      "type": "function"
    }
  ],
  "bytecode": "0x60c060405234801561001057600080fd5b50604051610eac380380610eac83398101604081905261002f916101e8565b338061005657604051631e4fbdf760e01b8152600060048201526024015b60405180910390fd5b61005f8161017c565b506001600160a01b0383166100b65760405162461bcd60e51b815260206004820152601960248201527f496e76616c6964206d657373656e676572206164647265737300000000000000604482015260640161004d565b816100f85760405162461bcd60e51b8152602060048201526012602482015271125b9d985b1a590810cb50da185a5b88125160721b604482015260640161004d565b6001600160a01b03811661014e5760405162461bcd60e51b815260206004820152601560248201527f496e76616c6964207661756c7420616464726573730000000000000000000000604482015260640161004d565b6001600160a01b0392831660805260a091909152600180546001600160a01b03191691909216179055610224565b600080546001600160a01b038381166001600160a01b0319831681178455604051919092169283917f8be0079c531659141344cd1fd0a4f28419497f9722a3daafe3b4186f6b6457e09190a35050565b80516001600160a01b03811681146101e357600080fd5b919050565b6000806000606084860312156101fd57600080fd5b610206846101cc565b92506020840151915061021b604085016101cc565b90509250925092565b60805160a051610c55610257600039600081816101ba015261040001526000818161022e015261047f0152610c556000f3fe608060405234801561001057600080fd5b50600436106100cf5760003560e01c806382cbb4e11161008c578063cfc763fb11610066578063cfc763fb14610250578063e0e3a83814610263578063e4063cf014610276578063f2fde38b1461028957600080fd5b806382cbb4e1146102055780638da5cb5b146102185780639b3e58031461022957600080fd5b80631176e3c5146100d457806315730885146100e9578063623da3d11461012f578063675ac054146101b5578063715018a6146101ea5780637d2f1c47146101f2575b600080fd5b6100e76100e2366004610a09565b61029c565b005b6101126100f7366004610a33565b6003602052600090815260409020546001600160a01b031681565b6040516001600160a01b0390911681526020015b60405180910390f35b61018161013d366004610a09565b60026020818152600093845260408085209091529183529120805460018201549282015460038301546004909301546001600160a01b039092169392909160ff1685565b604080516001600160a01b03909616865260208601949094529284019190915260608301521515608082015260a001610126565b6101dc7f000000000000000000000000000000000000000000000000000000000000000081565b604051908152602001610126565b6100e7610566565b6100e7610200366004610a4c565b61057a565b6100e7610213366004610a09565b610622565b6000546001600160a01b0316610112565b6101127f000000000000000000000000000000000000000000000000000000000000000081565b6100e761025e366004610a6e565b610700565b600154610112906001600160a01b031681565b6100e7610284366004610aa1565b61087b565b6100e7610297366004610a4c565b610932565b6001600160a01b03821660009081526002602090815260408083208484529091529020600481015460ff166103125760405162461bcd60e51b8152602060048201526017602482015276537562736372697074696f6e206e6f742061637469766560481b60448201526064015b60405180910390fd5b806003015442101561035c5760405162461bcd60e51b815260206004820152601360248201527214185e5b595b9d081b9bdd08191d59481e595d606a1b6044820152606401610309565b6000828152600360205260409020546001600160a01b0316806103c15760405162461bcd60e51b815260206004820152601860248201527f53657276696365207265636569766572206e6f742073657400000000000000006044820152606401610309565b6002820154604080516001600160a01b0387811660208084019190915285821683850152606080840186905284518085039091018152610140840185527f000000000000000000000000000000000000000000000000000000000000000060808501908152600154841660a086015285518087018752600080825281850181905260c0870191909152620493e060e0870152865181815293840187526101008601939093526101209094018190529351630624488560e41b815290927f0000000000000000000000000000000000000000000000000000000000000000909216916362448850916104b59190600401610b58565b6020604051808303816000875af11580156104d4573d6000803e3d6000fd5b505050506040513d601f19601f820116820180604052508101906104f89190610bdf565b905062278d008560030160008282546105119190610bf8565b925050819055508086886001600160a01b03167fb756b11fc5013df740c9d0d03be0250a28e5bd4a07ee2458c88eaab157d767aa8660405161055591815260200190565b60405180910390a450505050505050565b61056e610970565b610578600061099d565b565b610582610970565b6001600160a01b0381166105d05760405162461bcd60e51b8152602060048201526015602482015274496e76616c6964207661756c74206164647265737360581b6044820152606401610309565b600180546001600160a01b038381166001600160a01b0319831681179093556040519116919082907f02c2b18622605ab5e96abc3708107edd037da3582ae4fd631875db4ccb807b8a90600090a35050565b336001600160a01b038316148061064357506000546001600160a01b031633145b6106805760405162461bcd60e51b815260206004820152600e60248201526d139bdd08185d5d1a1bdc9a5e995960921b6044820152606401610309565b6001600160a01b03821660009081526002602090815260408083208484529091529020600481015460ff166106f15760405162461bcd60e51b8152602060048201526017602482015276537562736372697074696f6e206e6f742061637469766560481b6044820152606401610309565b600401805460ff191690555050565b6001600160a01b03831661074d5760405162461bcd60e51b8152602060048201526014602482015273496e76616c69642075736572206164647265737360601b6044820152606401610309565b600081116107905760405162461bcd60e51b815260206004820152601060248201526f0436f7374206d757374206265203e20360841b6044820152606401610309565b6040518060a00160405280846001600160a01b031681526020018381526020018281526020014262278d006107c59190610bf8565b8152600160209182018190526001600160a01b038681166000818152600280865260408083208a8452875291829020875181546001600160a01b031916951694909417845586860151948401949094558581015193830193909355606085015160038301556080909401516004909101805460ff1916911515919091179055518381528492917fd403fe1ac9e57395b4812a88f9638394676ccef32c1eb4f42fa82eb3e60d2030910160405180910390a3505050565b610883610970565b6001600160a01b0381166108d95760405162461bcd60e51b815260206004820152601860248201527f496e76616c6964207265636569766572206164647265737300000000000000006044820152606401610309565b60008281526003602052604080822080546001600160a01b0319166001600160a01b0385169081179091559051909184917f2762457d1fca9f980d42ad4edf149721ac5b55ec6524cfae26a982905e03bfec9190a35050565b61093a610970565b6001600160a01b03811661096457604051631e4fbdf760e01b815260006004820152602401610309565b61096d8161099d565b50565b6000546001600160a01b031633146105785760405163118cdaa760e01b8152336004820152602401610309565b600080546001600160a01b038381166001600160a01b0319831681178455604051919092169283917f8be0079c531659141344cd1fd0a4f28419497f9722a3daafe3b4186f6b6457e09190a35050565b80356001600160a01b0381168114610a0457600080fd5b919050565b60008060408385031215610a1c57600080fd5b610a25836109ed565b946020939093013593505050565b600060208284031215610a4557600080fd5b5035919050565b600060208284031215610a5e57600080fd5b610a67826109ed565b9392505050565b600080600060608486031215610a8357600080fd5b610a8c846109ed565b95602085013595506040909401359392505050565b60008060408385031215610ab457600080fd5b82359150610ac4602084016109ed565b90509250929050565b60008151808452602080850194506020840160005b83811015610b075781516001600160a01b031687529582019590820190600101610ae2565b509495945050505050565b6000815180845260005b81811015610b3857602081850181015186830182015201610b1c565b506000602082860101526020601f19601f83011685010191505092915050565b60208152815160208201526000602083015160018060a01b03808216604085015260408501519150808251166060850152506020810151608084015250606083015160a0830152608083015160e060c0840152610bb9610100840182610acd565b905060a0840151601f198483030160e0850152610bd68282610b12565b95945050505050565b600060208284031215610bf157600080fd5b5051919050565b80820180821115610c1957634e487b7160e01b600052601160045260246000fd5b9291505056fea2646970667358221220ad21bd9516ca4420d2eb4b4c6f0d447a17fb882f94e8c366592f9a256e193cb564736f6c63430008190033",
  "linkReferences": {},
  "deployedLinkReferences": {}
}